{"abi":[{"type":"function","name":"addStudent","inputs":[{"name":"_name","type":"string","internalType":"string"},{"name":"_age","type":"uint256","internalType":"uint256"}],"outputs":[],"stateMutability":"nonpayable"},{"type":"function","name":"getStudent","inputs":[{"name":"_studentId","type":"uint256","internalType":"uint256"}],"outputs":[{"name":"name","type":"string","internalType":"string"},{"name":"age","type":"uint256","internalType":"uint256"},{"name":"present","type":"bool","internalType":"bool"}],"stateMutability":"view"},{"type":"function","name":"getStudentCount","inputs":[],"outputs":[{"name":"","type":"uint256","internalType":"uint256"}],"stateMutability":"view"},{"type":"function","name":"students","inputs":[{"name":"","type":"uint256","internalType":"uint256"}],"outputs":[{"name":"name","type":"string","internalType":"string"},{"name":"age","type":"uint256","internalType":"uint256"},{"name":"present","type":"bool","internalType":"bool"}],"stateMutability":"view"},{"type":"function","name":"updateAttendance","inputs":[{"name":"_studentId","type":"uint256","internalType":"uint256"},{"name":"_present","type":"bool","internalType":"bool"}],"outputs":[],"stateMutability":"nonpayable"},{"type":"event","name":"AttendanceUpdated","inputs":[{"name":"studentId","type":"uint256","indexed":true,"internalType":"uint256"},{"name":"present","type":"bool","indexed":false,"internalType":"bool"}],"anonymous":false},{"type":"event","name":"StudentAdded","inputs":[{"name":"studentId","type":"uint256","indexed":true,"internalType":"uint256"},{"name":"name","type":"string","indexed":false,"internalType":"string"},{"name":"age","type":"uint256","indexed":false,"internalType":"uint256"}],"anonymous":false}],"bytecode":{"object":"0x6080604052348015600e575f5ffd5b50610c558061001c5f395ff3fe608060405234801561000f575f5ffd5b5060043610610055575f3560e01c806306ead22e146100595780630e5eeef71461008b57806341e0c407146100a7578063642f9163146100c5578063d6f4d53a146100f7575b5f5ffd5b610073600480360381019061006e91906104ff565b610113565b604051610082939291906105c3565b60405180910390f35b6100a560048036038101906100a0919061072b565b6101d9565b005b6100af6102af565b6040516100bc9190610785565b60405180910390f35b6100df60048036038101906100da91906104ff565b6102ba565b6040516100ee939291906105c3565b60405180910390f35b610111600480360381019061010c91906107c8565b610400565b005b5f8181548110610121575f80fd5b905f5260205f2090600302015f91509050805f01805461014090610833565b80601f016020809104026020016040519081016040528092919081815260200182805461016c90610833565b80156101b75780601f1061018e576101008083540402835291602001916101b7565b820191905f5260205f20905b81548152906001019060200180831161019a57829003601f168201915b505050505090806001015490806002015f9054906101000a900460ff16905083565b5f60405180606001604052808481526020018381526020015f151581525090505f81908060018154018082558091505060019003905f5260205f2090600302015f909190919091505f820151815f0190816102349190610a14565b50602082015181600101556040820151816002015f6101000a81548160ff021916908315150217905550505060015f805490506102719190610b10565b7ffafb7311fc57ca8a55073f63725e888b4250c799d77ae873970d65ac08c5917a84846040516102a2929190610b43565b60405180910390a2505050565b5f5f80549050905090565b60605f5f5f805490508410610304576040517f08c379a00000000000000000000000000000000000000000000000000000000081526004016102fb90610bbb565b60405180910390fd5b5f5f858154811061031857610317610bd9565b5b905f5260205f2090600302016040518060600160405290815f8201805461033e90610833565b80601f016020809104026020016040519081016040528092919081815260200182805461036a90610833565b80156103b55780601f1061038c576101008083540402835291602001916103b5565b820191905f5260205f20905b81548152906001019060200180831161039857829003601f168201915b5050505050815260200160018201548152602001600282015f9054906101000a900460ff1615151515815250509050805f015181602001518260400151935093509350509193909250565b5f805490508210610446576040517f08c379a000000000000000000000000000000000000000000000000000000000815260040161043d90610bbb565b60405180910390fd5b805f838154811061045a57610459610bd9565b5b905f5260205f2090600302016002015f6101000a81548160ff021916908315150217905550817fb24c5a7d71fb23dd51bc8d1fcbf951fa449ec941f1775a487bc9139bd573099d826040516104af9190610c06565b60405180910390a25050565b5f604051905090565b5f5ffd5b5f5ffd5b5f819050919050565b6104de816104cc565b81146104e8575f5ffd5b50565b5f813590506104f9816104d5565b92915050565b5f60208284031215610514576105136104c4565b5b5f610521848285016104eb565b91505092915050565b5f81519050919050565b5f82825260208201905092915050565b8281835e5f83830152505050565b5f601f19601f8301169050919050565b5f61056c8261052a565b6105768185610534565b9350610586818560208601610544565b61058f81610552565b840191505092915050565b6105a3816104cc565b82525050565b5f8115159050919050565b6105bd816105a9565b82525050565b5f6060820190508181035f8301526105db8186610562565b90506105ea602083018561059a565b6105f760408301846105b4565b949350505050565b5f5ffd5b5f5ffd5b7f4e487b71000000000000000000000000000000000000000000000000000000005f52604160045260245ffd5b61063d82610552565b810181811067ffffffffffffffff8211171561065c5761065b610607565b5b80604052505050565b5f61066e6104bb565b905061067a8282610634565b919050565b5f67ffffffffffffffff82111561069957610698610607565b5b6106a282610552565b9050602081019050919050565b828183375f83830152505050565b5f6106cf6106ca8461067f565b610665565b9050828152602081018484840111156106eb576106ea610603565b5b6106f68482856106af565b509392505050565b5f82601f830112610712576107116105ff565b5b81356107228482602086016106bd565b91505092915050565b5f5f60408385031215610741576107406104c4565b5b5f83013567ffffffffffffffff81111561075e5761075d6104c8565b5b61076a858286016106fe565b925050602061077b858286016104eb565b9150509250929050565b5f6020820190506107985f83018461059a565b92915050565b6107a7816105a9565b81146107b1575f5ffd5b50565b5f813590506107c28161079e565b92915050565b5f5f604083850312156107de576107dd6104c4565b5b5f6107eb858286016104eb565b92505060206107fc858286016107b4565b9150509250929050565b7f4e487b71000000000000000000000000000000000000000000000000000000005f52602260045260245ffd5b5f600282049050600182168061084a57607f821691505b60208210810361085d5761085c610806565b5b50919050565b5f819050815f5260205f209050919050565b5f6020601f8301049050919050565b5f82821b905092915050565b5f600883026108bf7fffffffffffffffffffffffffffffffffffffffffffffffffffffffffffffffff82610884565b6108c98683610884565b95508019841693508086168417925050509392505050565b5f819050919050565b5f6109046108ff6108fa846104cc565b6108e1565b6104cc565b9050919050565b5f819050919050565b61091d836108ea565b6109316109298261090b565b848454610890565b825550505050565b5f5f905090565b610948610939565b610953818484610914565b505050565b5f5b828110156109795761096e5f828401610940565b60018101905061095a565b505050565b601f8211156109cc57828211156109cb5761099881610863565b6109a183610875565b6109aa85610875565b60208610156109b7575f90505b8083016109c682840382610958565b505050505b5b505050565b5f82821c905092915050565b5f6109ec5f19846008026109d1565b1980831691505092915050565b5f610a0483836109dd565b9150826002028217905092915050565b610a1d8261052a565b67ffffffffffffffff811115610a3657610a35610607565b5b610a408254610833565b610a4b82828561097e565b5f60209050601f831160018114610a7c575f8415610a6a578287015190505b610a7485826109f9565b865550610adb565b601f198416610a8a86610863565b5f5b82811015610ab157848901518255600182019150602085019450602081019050610a8c565b86831015610ace5784890151610aca601f8916826109dd565b8355505b6001600288020188555050505b505050505050565b7f4e487b71000000000000000000000000000000000000000000000000000000005f52601160045260245ffd5b5f610b1a826104cc565b9150610b25836104cc565b9250828203905081811115610b3d57610b3c610ae3565b5b92915050565b5f6040820190508181035f830152610b5b8185610562565b9050610b6a602083018461059a565b9392505050565b7f53747564656e7420646f6573206e6f74206578697374000000000000000000005f82015250565b5f610ba5601683610534565b9150610bb082610b71565b602082019050919050565b5f6020820190508181035f830152610bd281610b99565b9050919050565b7f4e487b71000000000000000000000000000000000000000000000000000000005f52603260045260245ffd5b5f602082019050610c195f8301846105b4565b9291505056fea264697066735822122034c3079a14762bd0c331e376dac96b5b21b59f0b02806cc9e0961385946dd42764736f6c63430008210033","linkReferences":{}},"methodIdentifiers":{"addStudent(string,uint256)":"0e5eeef7","getStudent(uint256)":"642f9163","getStudentCount()":"41e0c407","students(uint256)":"06ead22e","updateAttendance(uint256,bool)":"d6f4d53a"},"id":16}